{
  "contractName": "Adoption",
  "abi": [
    {
      "inputs": [],
      "payable": false,
      "stateMutability": "nonpayable",
      "type": "constructor"
    },
    {
      "anonymous": false,
      "inputs": [
        {
          "indexed": false,
          "internalType": "uint256",
          "name": "_count",
          "type": "uint256"
        }
      ],
      "name": "GetPetCount",
      "type": "event"
    },
    {
      "payable": true,
      "stateMutability": "payable",
      "type": "fallback"
    },
    {
      "constant": true,
      "inputs": [
        {
          "internalType": "uint256",
          "name": "",
          "type": "uint256"
        },
        {
          "internalType": "uint256",
          "name": "",
          "type": "uint256"
        }
      ],
      "name": "Pets",
      "outputs": [
        {
          "internalType": "uint256",
          "name": "id",
          "type": "uint256"
        },
        {
          "internalType": "string",
          "name": "name",
          "type": "string"
        },
        {
          "internalType": "string",
          "name": "pictureHash",
          "type": "string"
        },
        {
          "internalType": "uint256",
          "name": "age",
          "type": "uint256"
        },
        {
          "internalType": "string",
          "name": "breed",
          "type": "string"
        },
        {
          "internalType": "string",
          "name": "location",
          "type": "string"
        },
        {
          "internalType": "address",
          "name": "adopter",
          "type": "address"
        }
      ],
      "payable": false,
      "stateMutability": "view",
      "type": "function"
    },
    {
      "constant": true,
      "inputs": [],
      "name": "petsCount",
      "outputs": [
        {
          "internalType": "uint256",
          "name": "",
          "type": "uint256"
        }
      ],
      "payable": false,
      "stateMutability": "view",
      "type": "function"
    },
    {
      "constant": false,
      "inputs": [
        {
          "internalType": "uint256",
          "name": "petId",
          "type": "uint256"
        }
      ],
      "name": "setAdopter",
      "outputs": [
        {
          "internalType": "uint256",
          "name": "",
          "type": "uint256"
        }
      ],
      "payable": false,
      "stateMutability": "nonpayable",
      "type": "function"
    },
    {
      "constant": false,
      "inputs": [
        {
          "internalType": "string",
          "name": "name",
          "type": "string"
        },
        {
          "internalType": "string",
          "name": "picHash",
          "type": "string"
        },
        {
          "internalType": "uint256",
          "name": "age",
          "type": "uint256"
        },
        {
          "internalType": "string",
          "name": "breed",
          "type": "string"
        },
        {
          "internalType": "string",
          "name": "location",
          "type": "string"
        }
      ],
      "name": "addNewPet",
      "outputs": [
        {
          "internalType": "uint256",
          "name": "",
          "type": "uint256"
        }
      ],
      "payable": false,
      "stateMutability": "nonpayable",
      "type": "function"
    },
    {
      "constant": false,
      "inputs": [],
      "name": "deleteAllPets",
      "outputs": [
        {
          "internalType": "bool",
          "name": "",
          "type": "bool"
        }
      ],
      "payable": false,
      "stateMutability": "nonpayable",
      "type": "function"
    },
    {
      "constant": true,
      "inputs": [
        {
          "internalType": "uint256",
          "name": "petId",
          "type": "uint256"
        }
      ],
      "name": "getPetInfo",
      "outputs": [
        {
          "internalType": "uint256",
          "name": "",
          "type": "uint256"
        },
        {
          "internalType": "string",
          "name": "",
          "type": "string"
        },
        {
          "internalType": "string",
          "name": "",
          "type": "string"
        },
        {
          "internalType": "uint256",
          "name": "",
          "type": "uint256"
        },
        {
          "internalType": "string",
          "name": "",
          "type": "string"
        },
        {
          "internalType": "string",
          "name": "",
          "type": "string"
        },
        {
          "internalType": "address",
          "name": "",
          "type": "address"
        }
      ],
      "payable": false,
      "stateMutability": "view",
      "type": "function"
    }
  ],
  "bytecode": "0x6080604052600060025534801561001557600080fd5b50600060018190555061106a8061002d6000396000f3fe6080604052600436106100555760003560e01c806331a55e6c1461005757806369c3f3161461009457806379709e72146100d7578063a2ce8f1514610102578063f443cc131461013f578063fd8c175d14610182575b005b34801561006357600080fd5b5061007e60048036036100799190810190610ca5565b6101ad565b60405161008b9190610dc4565b60405180910390f35b3480156100a057600080fd5b506100bb60048036036100b69190810190610ca5565b61023e565b6040516100ce9796959493929190610ddf565b60405180910390f35b3480156100e357600080fd5b506100ec610628565b6040516100f99190610da9565b60405180910390f35b34801561010e57600080fd5b5061012960048036036101249190810190610bce565b61064b565b6040516101369190610dc4565b60405180910390f35b34801561014b57600080fd5b5061016660048036036101619190810190610cce565b6107eb565b6040516101799796959493929190610e6a565b60405180910390f35b34801561018e57600080fd5b50610197610aba565b6040516101a49190610dc4565b60405180910390f35b60008082101580156101c0575060015482105b6101c957600080fd5b6000806000600254815260200190815260200160002060008481526020019081526020016000209050338160060160006101000a81548173ffffffffffffffffffffffffffffffffffffffff021916908373ffffffffffffffffffffffffffffffffffffffff16021790555082915050919050565b60006060806000606080600080881015801561025b575060015488105b61026457600080fd5b6000806002548152602001908152602001600020600089815260200190815260200160002060000154600080600254815260200190815260200160002060008a8152602001908152602001600020600101600080600254815260200190815260200160002060008b8152602001908152602001600020600201600080600254815260200190815260200160002060008c815260200190815260200160002060030154600080600254815260200190815260200160002060008d8152602001908152602001600020600401600080600254815260200190815260200160002060008e8152602001908152602001600020600501600080600254815260200190815260200160002060008f815260200190815260200160002060060160009054906101000a900473ffffffffffffffffffffffffffffffffffffffff16858054600181600116156101000203166002900480601f0160208091040260200160405190810160405280929190818152602001828054600181600116156101000203166002900480156104345780601f1061040957610100808354040283529160200191610434565b820191906000526020600020905b81548152906001019060200180831161041757829003601f168201915b50505050509550848054600181600116156101000203166002900480601f0160208091040260200160405190810160405280929190818152602001828054600181600116156101000203166002900480156104d05780601f106104a5576101008083540402835291602001916104d0565b820191906000526020600020905b8154815290600101906020018083116104b357829003601f168201915b50505050509450828054600181600116156101000203166002900480601f01602080910402602001604051908101604052809291908181526020018280546001816001161561010002031660029004801561056c5780601f106105415761010080835404028352916020019161056c565b820191906000526020600020905b81548152906001019060200180831161054f57829003601f168201915b50505050509250818054600181600116156101000203166002900480601f0160208091040260200160405190810160405280929190818152602001828054600181600116156101000203166002900480156106085780601f106105dd57610100808354040283529160200191610608565b820191906000526020600020905b8154815290600101906020018083116105eb57829003601f168201915b505050505091509650965096509650965096509650919395979092949650565b600060026000815480929190600101919050555060006001819055506001905090565b60006040518060e001604052806001548152602001878152602001868152602001858152602001848152602001838152602001600073ffffffffffffffffffffffffffffffffffffffff168152506000806002548152602001908152602001600020600060015481526020019081526020016000206000820151816000015560208201518160010190805190602001906106e6929190610ac0565b506040820151816002019080519060200190610703929190610ac0565b5060608201518160030155608082015181600401908051906020019061072a929190610ac0565b5060a0820151816005019080519060200190610747929190610ac0565b5060c08201518160060160006101000a81548173ffffffffffffffffffffffffffffffffffffffff021916908373ffffffffffffffffffffffffffffffffffffffff1602179055509050506001600081548092919060010191905055507fdf66059526a19b7a744fc08e4e91190cff903ebda1c1796644cd68db6adba2156001546040516107d59190610dc4565b60405180910390a1600154905095945050505050565b600060205281600052604060002060205280600052604060002060009150915050806000015490806001018054600181600116156101000203166002900480601f0160208091040260200160405190810160405280929190818152602001828054600181600116156101000203166002900480156108aa5780601f1061087f576101008083540402835291602001916108aa565b820191906000526020600020905b81548152906001019060200180831161088d57829003601f168201915b505050505090806002018054600181600116156101000203166002900480601f0160208091040260200160405190810160405280929190818152602001828054600181600116156101000203166002900480156109485780601f1061091d57610100808354040283529160200191610948565b820191906000526020600020905b81548152906001019060200180831161092b57829003601f168201915b505050505090806003015490806004018054600181600116156101000203166002900480601f0160208091040260200160405190810160405280929190818152602001828054600181600116156101000203166002900480156109ec5780601f106109c1576101008083540402835291602001916109ec565b820191906000526020600020905b8154815290600101906020018083116109cf57829003601f168201915b505050505090806005018054600181600116156101000203166002900480601f016020809104026020016040519081016040528092919081815260200182805460018160011615610100020316600290048015610a8a5780601f10610a5f57610100808354040283529160200191610a8a565b820191906000526020600020905b815481529060010190602001808311610a6d57829003601f168201915b5050505050908060060160009054906101000a900473ffffffffffffffffffffffffffffffffffffffff16905087565b60015481565b828054600181600116156101000203166002900490600052602060002090601f016020900481019282601f10610b0157805160ff1916838001178555610b2f565b82800160010185558215610b2f579182015b82811115610b2e578251825591602001919060010190610b13565b5b509050610b3c9190610b40565b5090565b610b6291905b80821115610b5e576000816000905550600101610b46565b5090565b90565b600082601f830112610b7657600080fd5b8135610b89610b8482610f22565b610ef5565b91508082526020830160208301858383011115610ba557600080fd5b610bb0838284610fbd565b50505092915050565b600081359050610bc881611010565b92915050565b600080600080600060a08688031215610be657600080fd5b600086013567ffffffffffffffff811115610c0057600080fd5b610c0c88828901610b65565b955050602086013567ffffffffffffffff811115610c2957600080fd5b610c3588828901610b65565b9450506040610c4688828901610bb9565b935050606086013567ffffffffffffffff811115610c6357600080fd5b610c6f88828901610b65565b925050608086013567ffffffffffffffff811115610c8c57600080fd5b610c9888828901610b65565b9150509295509295909350565b600060208284031215610cb757600080fd5b6000610cc584828501610bb9565b91505092915050565b60008060408385031215610ce157600080fd5b6000610cef85828601610bb9565b9250506020610d0085828601610bb9565b9150509250929050565b610d1381610f75565b82525050565b610d2281610f87565b82525050565b6000610d3382610f59565b610d3d8185610f64565b9350610d4d818560208601610fcc565b610d5681610fff565b840191505092915050565b6000610d6c82610f4e565b610d768185610f64565b9350610d86818560208601610fcc565b610d8f81610fff565b840191505092915050565b610da381610fb3565b82525050565b6000602082019050610dbe6000830184610d19565b92915050565b6000602082019050610dd96000830184610d9a565b92915050565b600060e082019050610df4600083018a610d9a565b8181036020830152610e068189610d28565b90508181036040830152610e1a8188610d28565b9050610e296060830187610d9a565b8181036080830152610e3b8186610d28565b905081810360a0830152610e4f8185610d28565b9050610e5e60c0830184610d0a565b98975050505050505050565b600060e082019050610e7f600083018a610d9a565b8181036020830152610e918189610d61565b90508181036040830152610ea58188610d61565b9050610eb46060830187610d9a565b8181036080830152610ec68186610d61565b905081810360a0830152610eda8185610d61565b9050610ee960c0830184610d0a565b98975050505050505050565b6000604051905081810181811067ffffffffffffffff82111715610f1857600080fd5b8060405250919050565b600067ffffffffffffffff821115610f3957600080fd5b601f19601f8301169050602081019050919050565b600081519050919050565b600081519050919050565b600082825260208201905092915050565b6000610f8082610f93565b9050919050565b60008115159050919050565b600073ffffffffffffffffffffffffffffffffffffffff82169050919050565b6000819050919050565b82818337600083830152505050565b60005b83811015610fea578082015181840152602081019050610fcf565b83811115610ff9576000848401525b50505050565b6000601f19601f8301169050919050565b61101981610fb3565b811461102457600080fd5b5056fea365627a7a7231582099629eb53dda203199221cc0feca310693ae543b7d21d69a4dd7812a9c87e1af6c6578706572696d656e74616cf564736f6c63430005100040",
  "source": "pragma solidity ^0.5.0;\r\npragma experimental ABIEncoderV2;\r\ncontract Adoption {\r\n    event GetPetCount(uint256 _count);\r\n    struct Pet {\r\n        uint256 id;\r\n        string name;\r\n        string pictureHash;\r\n        uint256 age;\r\n        string breed;\r\n        string location;\r\n        address adopter;\r\n    }\r\n\r\n    mapping(uint256 => mapping(uint256 => Pet)) public Pets;\r\n    uint256 public petsCount;\r\n    uint256 private _testIterationNum = 0;\r\n\r\n    constructor() public {\r\n        petsCount = 0;\r\n    }\r\n\r\n    // Adopting a pet\r\n    function setAdopter(uint256 petId) public returns (uint256) {\r\n        require(petId >= 0 && petId < petsCount);\r\n\r\n        Pet storage pet = Pets[_testIterationNum][petId];\r\n        pet.adopter = msg.sender;\r\n\r\n        return petId;\r\n    }\r\n\r\n    function addNewPet(\r\n        string memory name,\r\n        string memory picHash,\r\n        uint256 age,\r\n        string memory breed,\r\n        string memory location\r\n    ) public returns (uint256) {\r\n        Pets[_testIterationNum][petsCount] = Pet(\r\n            petsCount,\r\n            name,\r\n            picHash,\r\n            age,\r\n            breed,\r\n            location,\r\n            0x0000000000000000000000000000000000000000\r\n        );\r\n        petsCount++;\r\n        emit GetPetCount(petsCount);\r\n        return petsCount;\r\n    }\r\n\r\n    function deleteAllPets() public returns (bool) {\r\n        _testIterationNum++;\r\n        petsCount = 0;\r\n        return true;\r\n    }\r\n\r\n    // function getPetsInfo() external view returns (uint256[] memory, string[] memory, string[] memory, uint256[] memory, string[] memory, string[] memory, address[] memory) {\r\n\r\n    //     uint256[] memory ids =  new uint256[](petsCount);\r\n    //     string[] memory names = new string[](petsCount);\r\n    //     string[] memory pictureHashs = new string[](petsCount);\r\n    //     uint256[] memory ages =  new uint256[](petsCount);\r\n    //     string[] memory breeds = new string[](petsCount);\r\n    //     string[] memory locations = new string[](petsCount);\r\n    //     address[] memory adopters = new address[](petsCount);\r\n    //     for (uint256 i = 0; i < petsCount; i++) {\r\n    //         ids[i] = (Pets[_testIterationNum][i].id);\r\n    //         names[i] = Pets[_testIterationNum][i].name;\r\n    //         pictureHashs[i] = (Pets[_testIterationNum][i].pictureHash);\r\n    //         breeds[i] = (Pets[_testIterationNum][i].breed);\r\n    //         locations[i] = (Pets[_testIterationNum][i].location);   \r\n    //         adopters[i] = (Pets[_testIterationNum][i].adopter);\r\n    //         ages[i] = (Pets[_testIterationNum][i].age);\r\n    //     }\r\n    //     return (ids,names,pictureHashs,ages,breeds,locations,adopters);\r\n    // }\r\n\r\n    function getPetInfo(uint256 petId) public view returns (uint256, string memory, string memory, uint256, string memory, string memory, address) {\r\n        require(petId >= 0 && petId < petsCount);\r\n        return (Pets[_testIterationNum][petId].id, Pets[_testIterationNum][petId].name, Pets[_testIterationNum][petId].pictureHash, Pets[_testIterationNum][petId].age, Pets[_testIterationNum][petId].breed, Pets[_testIterationNum][petId].location, Pets[_testIterationNum][petId].adopter);\r\n    }\r\n\r\n    // function getPetInfo(uint256 petId) public view returns (Pet memory) {\r\n    //     require(petId >= 0 && petId < petsCount);\r\n    //     return Pets[_testIterationNum][petId];\r\n    // }\r\n\r\n    // Retrieving the adopters\r\n    // function getAdopters() public view returns (address[16] memory) {\r\n    //     return adopters;\r\n    // }\r\n\r\n    function() external payable {}\r\n}\r\n",
  "sourcePath": "D:/aps1050/wk6/hw/pet-shop-tutorial - 副本/contracts/Adoption.sol",
  "compiler": {
    "name": "solc",
    "version": "0.5.16+commit.9c3226ce.Emscripten.clang"
  },
  "schemaVersion": "3.0.22",
  "updatedAt": "2021-08-25T04:41:43.705Z",
  "networkType": "ethereum",
  "devdoc": {
    "methods": {}
  },
  "userdoc": {
    "methods": {}
  }
}