{
  "contractName": "Adoption",
  "abi": [
    {
      "inputs": [],
      "payable": false,
      "stateMutability": "nonpayable",
      "type": "constructor"
    },
    {
      "anonymous": false,
      "inputs": [
        {
          "indexed": false,
          "internalType": "uint256",
          "name": "_petId",
          "type": "uint256"
        },
        {
          "indexed": false,
          "internalType": "uint256",
          "name": "_biddingPrice",
          "type": "uint256"
        },
        {
          "indexed": false,
          "internalType": "address",
          "name": "bidderAddres",
          "type": "address"
        }
      ],
      "name": "Bidding",
      "type": "event"
    },
    {
      "anonymous": false,
      "inputs": [
        {
          "indexed": false,
          "internalType": "uint256",
          "name": "_count",
          "type": "uint256"
        }
      ],
      "name": "GetPetCount",
      "type": "event"
    },
    {
      "payable": true,
      "stateMutability": "payable",
      "type": "fallback"
    },
    {
      "constant": true,
      "inputs": [
        {
          "internalType": "uint256",
          "name": "",
          "type": "uint256"
        },
        {
          "internalType": "uint256",
          "name": "",
          "type": "uint256"
        }
      ],
      "name": "Pets",
      "outputs": [
        {
          "internalType": "uint256",
          "name": "id",
          "type": "uint256"
        },
        {
          "internalType": "string",
          "name": "name",
          "type": "string"
        },
        {
          "internalType": "string",
          "name": "pictureHash",
          "type": "string"
        },
        {
          "internalType": "uint256",
          "name": "age",
          "type": "uint256"
        },
        {
          "internalType": "string",
          "name": "breed",
          "type": "string"
        },
        {
          "internalType": "string",
          "name": "location",
          "type": "string"
        },
        {
          "internalType": "address",
          "name": "adopter",
          "type": "address"
        },
        {
          "internalType": "bool",
          "name": "forFree",
          "type": "bool"
        },
        {
          "internalType": "uint256",
          "name": "currentPrice",
          "type": "uint256"
        },
        {
          "internalType": "uint256",
          "name": "minIncrement",
          "type": "uint256"
        }
      ],
      "payable": false,
      "stateMutability": "view",
      "type": "function"
    },
    {
      "constant": true,
      "inputs": [],
      "name": "petsCount",
      "outputs": [
        {
          "internalType": "uint256",
          "name": "",
          "type": "uint256"
        }
      ],
      "payable": false,
      "stateMutability": "view",
      "type": "function"
    },
    {
      "constant": false,
      "inputs": [
        {
          "internalType": "uint256",
          "name": "petId",
          "type": "uint256"
        }
      ],
      "name": "setAdopter",
      "outputs": [
        {
          "internalType": "uint256",
          "name": "",
          "type": "uint256"
        }
      ],
      "payable": false,
      "stateMutability": "nonpayable",
      "type": "function"
    },
    {
      "constant": false,
      "inputs": [
        {
          "internalType": "uint256",
          "name": "petId",
          "type": "uint256"
        },
        {
          "internalType": "uint256",
          "name": "bidPrice",
          "type": "uint256"
        }
      ],
      "name": "processBid",
      "outputs": [
        {
          "internalType": "bool",
          "name": "",
          "type": "bool"
        }
      ],
      "payable": false,
      "stateMutability": "nonpayable",
      "type": "function"
    },
    {
      "constant": false,
      "inputs": [
        {
          "internalType": "string",
          "name": "name",
          "type": "string"
        },
        {
          "internalType": "string",
          "name": "picHash",
          "type": "string"
        },
        {
          "internalType": "uint256",
          "name": "age",
          "type": "uint256"
        },
        {
          "internalType": "string",
          "name": "breed",
          "type": "string"
        },
        {
          "internalType": "string",
          "name": "location",
          "type": "string"
        },
        {
          "internalType": "bool",
          "name": "forFree",
          "type": "bool"
        },
        {
          "internalType": "uint256",
          "name": "startPrice",
          "type": "uint256"
        },
        {
          "internalType": "uint256",
          "name": "minIncrement",
          "type": "uint256"
        }
      ],
      "name": "addNewPet",
      "outputs": [
        {
          "internalType": "uint256",
          "name": "",
          "type": "uint256"
        }
      ],
      "payable": false,
      "stateMutability": "nonpayable",
      "type": "function"
    },
    {
      "constant": false,
      "inputs": [],
      "name": "deleteAllPets",
      "outputs": [
        {
          "internalType": "bool",
          "name": "",
          "type": "bool"
        }
      ],
      "payable": false,
      "stateMutability": "nonpayable",
      "type": "function"
    },
    {
      "constant": true,
      "inputs": [
        {
          "internalType": "uint256",
          "name": "petId",
          "type": "uint256"
        }
      ],
      "name": "getPetInfo",
      "outputs": [
        {
          "internalType": "uint256",
          "name": "",
          "type": "uint256"
        },
        {
          "internalType": "string",
          "name": "",
          "type": "string"
        },
        {
          "internalType": "string",
          "name": "",
          "type": "string"
        },
        {
          "internalType": "uint256",
          "name": "",
          "type": "uint256"
        },
        {
          "internalType": "string",
          "name": "",
          "type": "string"
        },
        {
          "internalType": "string",
          "name": "",
          "type": "string"
        },
        {
          "internalType": "address",
          "name": "",
          "type": "address"
        }
      ],
      "payable": false,
      "stateMutability": "view",
      "type": "function"
    },
    {
      "constant": true,
      "inputs": [
        {
          "internalType": "uint256",
          "name": "petId",
          "type": "uint256"
        }
      ],
      "name": "getPetType",
      "outputs": [
        {
          "internalType": "uint256",
          "name": "",
          "type": "uint256"
        },
        {
          "internalType": "bool",
          "name": "",
          "type": "bool"
        }
      ],
      "payable": false,
      "stateMutability": "view",
      "type": "function"
    },
    {
      "constant": true,
      "inputs": [
        {
          "internalType": "uint256",
          "name": "petId",
          "type": "uint256"
        }
      ],
      "name": "getPetPrice",
      "outputs": [
        {
          "internalType": "uint256",
          "name": "",
          "type": "uint256"
        },
        {
          "internalType": "uint256",
          "name": "",
          "type": "uint256"
        },
        {
          "internalType": "uint256",
          "name": "",
          "type": "uint256"
        },
        {
          "internalType": "address",
          "name": "",
          "type": "address"
        }
      ],
      "payable": false,
      "stateMutability": "view",
      "type": "function"
    }
  ],
  "bytecode": "0x608060405261028a600055600060035534801561001b57600080fd5b506000600281905550611728806100336000396000f3fe6080604052600436106100865760003560e01c806392939f931161005957806392939f9314610173578063d40c600e146101b0578063e9d5da07146101ed578063f443cc131461022b578063fd8c175d1461027157610086565b806331a55e6c1461008857806369c3f316146100c557806379709e72146101085780637d5b921914610133575b005b34801561009457600080fd5b506100af60048036036100aa9190810190611235565b61029c565b6040516100bc9190611363565b60405180910390f35b3480156100d157600080fd5b506100ec60048036036100e79190810190611235565b610374565b6040516100ff97969594939291906113a7565b60405180910390f35b34801561011457600080fd5b5061011d610765565b60405161012a9190611348565b60405180910390f35b34801561013f57600080fd5b5061015a60048036036101559190810190611235565b610788565b60405161016a9493929190611521565b60405180910390f35b34801561017f57600080fd5b5061019a60048036036101959190810190611123565b610880565b6040516101a79190611363565b60405180910390f35b3480156101bc57600080fd5b506101d760048036036101d2919081019061125e565b610a8a565b6040516101e49190611348565b60405180910390f35b3480156101f957600080fd5b50610214600480360361020f9190810190611235565b610c84565b60405161022292919061137e565b60405180910390f35b34801561023757600080fd5b50610252600480360361024d919081019061125e565b610d0c565b6040516102689a99989796959493929190611432565b60405180910390f35b34801561027d57600080fd5b50610286610ffa565b6040516102939190611363565b60405180910390f35b60008082101580156102af575060025482105b80156102f5575060011515600160006003548152602001908152602001600020600084815260200190815260200160002060060160149054906101000a900460ff161515145b6102fe57600080fd5b600060016000600354815260200190815260200160002060008481526020019081526020016000209050338160060160006101000a81548173ffffffffffffffffffffffffffffffffffffffff021916908373ffffffffffffffffffffffffffffffffffffffff16021790555082915050919050565b600060608060006060806000808810158015610391575060025488105b61039a57600080fd5b60016000600354815260200190815260200160002060008981526020019081526020016000206000015460016000600354815260200190815260200160002060008a815260200190815260200160002060010160016000600354815260200190815260200160002060008b815260200190815260200160002060020160016000600354815260200190815260200160002060008c81526020019081526020016000206003015460016000600354815260200190815260200160002060008d815260200190815260200160002060040160016000600354815260200190815260200160002060008e815260200190815260200160002060050160016000600354815260200190815260200160002060008f815260200190815260200160002060060160009054906101000a900473ffffffffffffffffffffffffffffffffffffffff16858054600181600116156101000203166002900480601f0160208091040260200160405190810160405280929190818152602001828054600181600116156101000203166002900480156105715780601f1061054657610100808354040283529160200191610571565b820191906000526020600020905b81548152906001019060200180831161055457829003601f168201915b50505050509550848054600181600116156101000203166002900480601f01602080910402602001604051908101604052809291908181526020018280546001816001161561010002031660029004801561060d5780601f106105e25761010080835404028352916020019161060d565b820191906000526020600020905b8154815290600101906020018083116105f057829003601f168201915b50505050509450828054600181600116156101000203166002900480601f0160208091040260200160405190810160405280929190818152602001828054600181600116156101000203166002900480156106a95780601f1061067e576101008083540402835291602001916106a9565b820191906000526020600020905b81548152906001019060200180831161068c57829003601f168201915b50505050509250818054600181600116156101000203166002900480601f0160208091040260200160405190810160405280929190818152602001828054600181600116156101000203166002900480156107455780601f1061071a57610100808354040283529160200191610745565b820191906000526020600020905b81548152906001019060200180831161072857829003601f168201915b505050505091509650965096509650965096509650919395979092949650565b600060036000815480929190600101919050555060006002819055506001905090565b600080600080600085101580156107a0575060025485105b6107a957600080fd5b600160006003548152602001908152602001600020600086815260200190815260200160002060000154600160006003548152602001908152602001600020600087815260200190815260200160002060070154600160006003548152602001908152602001600020600088815260200190815260200160002060080154600160006003548152602001908152602001600020600089815260200190815260200160002060060160009054906101000a900473ffffffffffffffffffffffffffffffffffffffff1693509350935093509193509193565b60008083101561088f57600192505b600082101561089d57600191505b60405180610140016040528060025481526020018a8152602001898152602001888152602001878152602001868152602001600073ffffffffffffffffffffffffffffffffffffffff1681526020018515158152602001848152602001838152506001600060035481526020019081526020016000206000600254815260200190815260200160002060008201518160000155602082015181600101908051906020019061094c929190611000565b506040820151816002019080519060200190610969929190611000565b50606082015181600301556080820151816004019080519060200190610990929190611000565b5060a08201518160050190805190602001906109ad929190611000565b5060c08201518160060160006101000a81548173ffffffffffffffffffffffffffffffffffffffff021916908373ffffffffffffffffffffffffffffffffffffffff16021790555060e08201518160060160146101000a81548160ff021916908315150217905550610100820151816007015561012082015181600801559050506002600081548092919060010191905055507fdf66059526a19b7a744fc08e4e91190cff903ebda1c1796644cd68db6adba215600254604051610a719190611363565b60405180910390a1600254905098975050505050505050565b6000808310158015610a9d575060025483105b8015610ae3575060001515600160006003548152602001908152602001600020600085815260200190815260200160002060060160149054906101000a900460ff161515145b610aec57600080fd5b60006001600060035481526020019081526020016000206000858152602001908152602001600020600801546001600060035481526020019081526020016000206000868152602001908152602001600020600701540190506000600160006003548152602001908152602001600020600086815260200190815260200160002060060160009054906101000a900473ffffffffffffffffffffffffffffffffffffffff16905081841115610c77578360016000600354815260200190815260200160002060008781526020019081526020016000206007018190555033600160006003548152602001908152602001600020600087815260200190815260200160002060060160006101000a81548173ffffffffffffffffffffffffffffffffffffffff021916908373ffffffffffffffffffffffffffffffffffffffff1602179055507fea48964911ca71e34e1eb585b0674f3dc3e14b3799bc023e57cdcaf349bf9cfb858533604051610c64939291906114ea565b60405180910390a1600192505050610c7e565b6000925050505b92915050565b60008060008310158015610c99575060025483105b610ca257600080fd5b600160006003548152602001908152602001600020600084815260200190815260200160002060000154600160006003548152602001908152602001600020600085815260200190815260200160002060060160149054906101000a900460ff1691509150915091565b600160205281600052604060002060205280600052604060002060009150915050806000015490806001018054600181600116156101000203166002900480601f016020809104026020016040519081016040528092919081815260200182805460018160011615610100020316600290048015610dcb5780601f10610da057610100808354040283529160200191610dcb565b820191906000526020600020905b815481529060010190602001808311610dae57829003601f168201915b505050505090806002018054600181600116156101000203166002900480601f016020809104026020016040519081016040528092919081815260200182805460018160011615610100020316600290048015610e695780601f10610e3e57610100808354040283529160200191610e69565b820191906000526020600020905b815481529060010190602001808311610e4c57829003601f168201915b505050505090806003015490806004018054600181600116156101000203166002900480601f016020809104026020016040519081016040528092919081815260200182805460018160011615610100020316600290048015610f0d5780601f10610ee257610100808354040283529160200191610f0d565b820191906000526020600020905b815481529060010190602001808311610ef057829003601f168201915b505050505090806005018054600181600116156101000203166002900480601f016020809104026020016040519081016040528092919081815260200182805460018160011615610100020316600290048015610fab5780601f10610f8057610100808354040283529160200191610fab565b820191906000526020600020905b815481529060010190602001808311610f8e57829003601f168201915b5050505050908060060160009054906101000a900473ffffffffffffffffffffffffffffffffffffffff16908060060160149054906101000a900460ff1690806007015490806008015490508a565b60025481565b828054600181600116156101000203166002900490600052602060002090601f016020900481019282601f1061104157805160ff191683800117855561106f565b8280016001018555821561106f579182015b8281111561106e578251825591602001919060010190611053565b5b50905061107c9190611080565b5090565b6110a291905b8082111561109e576000816000905550600101611086565b5090565b90565b6000813590506110b4816116b7565b92915050565b600082601f8301126110cb57600080fd5b81356110de6110d982611593565b611566565b915080825260208301602083018583830111156110fa57600080fd5b611105838284611664565b50505092915050565b60008135905061111d816116ce565b92915050565b600080600080600080600080610100898b03121561114057600080fd5b600089013567ffffffffffffffff81111561115a57600080fd5b6111668b828c016110ba565b985050602089013567ffffffffffffffff81111561118357600080fd5b61118f8b828c016110ba565b97505060406111a08b828c0161110e565b965050606089013567ffffffffffffffff8111156111bd57600080fd5b6111c98b828c016110ba565b955050608089013567ffffffffffffffff8111156111e657600080fd5b6111f28b828c016110ba565b94505060a06112038b828c016110a5565b93505060c06112148b828c0161110e565b92505060e06112258b828c0161110e565b9150509295985092959890939650565b60006020828403121561124757600080fd5b60006112558482850161110e565b91505092915050565b6000806040838503121561127157600080fd5b600061127f8582860161110e565b92505060206112908582860161110e565b9150509250929050565b6112a38161162e565b82525050565b6112b2816115e6565b82525050565b6112c1816115f8565b82525050565b60006112d2826115ca565b6112dc81856115d5565b93506112ec818560208601611673565b6112f5816116a6565b840191505092915050565b600061130b826115bf565b61131581856115d5565b9350611325818560208601611673565b61132e816116a6565b840191505092915050565b61134281611624565b82525050565b600060208201905061135d60008301846112b8565b92915050565b60006020820190506113786000830184611339565b92915050565b60006040820190506113936000830185611339565b6113a060208301846112b8565b9392505050565b600060e0820190506113bc600083018a611339565b81810360208301526113ce81896112c7565b905081810360408301526113e281886112c7565b90506113f16060830187611339565b818103608083015261140381866112c7565b905081810360a083015261141781856112c7565b905061142660c08301846112a9565b98975050505050505050565b600061014082019050611448600083018d611339565b818103602083015261145a818c611300565b9050818103604083015261146e818b611300565b905061147d606083018a611339565b818103608083015261148f8189611300565b905081810360a08301526114a38188611300565b90506114b260c08301876112a9565b6114bf60e08301866112b8565b6114cd610100830185611339565b6114db610120830184611339565b9b9a5050505050505050505050565b60006060820190506114ff6000830186611339565b61150c6020830185611339565b611519604083018461129a565b949350505050565b60006080820190506115366000830187611339565b6115436020830186611339565b6115506040830185611339565b61155d60608301846112a9565b95945050505050565b6000604051905081810181811067ffffffffffffffff8211171561158957600080fd5b8060405250919050565b600067ffffffffffffffff8211156115aa57600080fd5b601f19601f8301169050602081019050919050565b600081519050919050565b600081519050919050565b600082825260208201905092915050565b60006115f182611604565b9050919050565b60008115159050919050565b600073ffffffffffffffffffffffffffffffffffffffff82169050919050565b6000819050919050565b600061163982611640565b9050919050565b600061164b82611652565b9050919050565b600061165d82611604565b9050919050565b82818337600083830152505050565b60005b83811015611691578082015181840152602081019050611676565b838111156116a0576000848401525b50505050565b6000601f19601f8301169050919050565b6116c0816115f8565b81146116cb57600080fd5b50565b6116d781611624565b81146116e257600080fd5b5056fea365627a7a72315820f0ae3c64b6d8aa2f8b5c5f697657a84086e2f0a6c48e999c8201220a6a1f71c66c6578706572696d656e74616cf564736f6c63430005100040",
  "source": "pragma solidity ^0.5.0;\r\npragma experimental ABIEncoderV2;\r\ncontract Adoption {\r\n    uint VersionMarker3 = 650;\r\n    event GetPetCount(uint256 _count);\r\n    event Bidding(uint256 _petId, uint256 _biddingPrice, address bidderAddres);\r\n\r\n    struct Pet {\r\n        uint256 id;\r\n        string name;\r\n        string pictureHash;\r\n        uint256 age;\r\n        string breed;\r\n        string location;\r\n        address adopter; //also the winner of an auction\r\n\r\n        bool forFree; //true is for adotion, false is for auction\r\n        //parameters below are for aucitons only\r\n        uint256 currentPrice;\r\n        uint256 minIncrement;\r\n    }\r\n\r\n    mapping(uint256 => mapping(uint256 => Pet)) public Pets; //[# of generations][pet-id]\r\n\r\n    uint256 public petsCount;\r\n    uint256 private _testIterationNum = 0; // # of activity generations\r\n\r\n    constructor() public {\r\n        petsCount = 0;\r\n    }\r\n\r\n    // Adopting a pet\r\n    function setAdopter(uint256 petId) public returns (uint256) {\r\n        require(petId >= 0 && petId < petsCount && Pets[_testIterationNum][petId].forFree == true); \r\n        //we might need to add Pets[_testIterationNum][petId].adopter == address(0)\r\n        //and Pets[_testIterationNum][petId].forFree == true\r\n\r\n        Pet storage pet = Pets[_testIterationNum][petId];\r\n        pet.adopter = msg.sender;\r\n\r\n        // Pets[_testIterationNum][petId].adopter = msg.sender;\r\n\r\n        return petId;\r\n    }\r\n\r\n    // Bid on a pet\r\n    function processBid(uint256 petId, uint256 bidPrice) public returns (bool) {\r\n        require(petId >= 0 && petId < petsCount && Pets[_testIterationNum][petId].forFree == false);\r\n\r\n        uint256 minimumPrice = Pets[_testIterationNum][petId].currentPrice + Pets[_testIterationNum][petId].minIncrement;\r\n        address currentAdopter = Pets[_testIterationNum][petId].adopter;\r\n\r\n\r\n        if (bidPrice > minimumPrice) { //(bidPrice > minimumPrice && msg.sender != currentAdopter)\r\n            Pets[_testIterationNum][petId].currentPrice = bidPrice;\r\n            Pets[_testIterationNum][petId].adopter = msg.sender;\r\n            emit Bidding(petId, bidPrice, msg.sender);\r\n            return true;\r\n        }\r\n        else {\r\n            return false;\r\n        }\r\n    }\r\n\r\n    // Adding new pet\r\n    function addNewPet(\r\n        string memory name,\r\n        string memory picHash,\r\n        uint256 age,\r\n        string memory breed,\r\n        string memory location,\r\n\r\n        bool forFree,\r\n        uint256 startPrice,\r\n        uint256 minIncrement \r\n    ) public returns (uint256) {\r\n        // to make sure the followings are positive \r\n        if (startPrice<0) {\r\n            startPrice = 1;\r\n        }\r\n        if (minIncrement<0) {\r\n            minIncrement = 1;\r\n        }\r\n\r\n        Pets[_testIterationNum][petsCount] = Pet(\r\n            petsCount,\r\n            name,\r\n            picHash,\r\n            age,\r\n            breed,\r\n            location,\r\n            address(0),\r\n\r\n            forFree,\r\n            startPrice,\r\n            minIncrement\r\n        );\r\n        petsCount++;\r\n        emit GetPetCount(petsCount);\r\n        return petsCount;\r\n    }\r\n\r\n    function deleteAllPets() public returns (bool) {\r\n        _testIterationNum++;\r\n        petsCount = 0;\r\n        return true;\r\n    }\r\n\r\n    // function getPetsInfo() external view returns (uint256[] memory, string[] memory, string[] memory, uint256[] memory, string[] memory, string[] memory, address[] memory) {\r\n\r\n    //     uint256[] memory ids =  new uint256[](petsCount);\r\n    //     string[] memory names = new string[](petsCount);\r\n    //     string[] memory pictureHashs = new string[](petsCount);\r\n    //     uint256[] memory ages =  new uint256[](petsCount);\r\n    //     string[] memory breeds = new string[](petsCount);\r\n    //     string[] memory locations = new string[](petsCount);\r\n    //     address[] memory adopters = new address[](petsCount);\r\n    //     for (uint256 i = 0; i < petsCount; i++) {\r\n    //         ids[i] = (Pets[_testIterationNum][i].id);\r\n    //         names[i] = Pets[_testIterationNum][i].name;\r\n    //         pictureHashs[i] = (Pets[_testIterationNum][i].pictureHash);\r\n    //         breeds[i] = (Pets[_testIterationNum][i].breed);\r\n    //         locations[i] = (Pets[_testIterationNum][i].location);   \r\n    //         adopters[i] = (Pets[_testIterationNum][i].adopter);\r\n    //         ages[i] = (Pets[_testIterationNum][i].age);\r\n    //     }\r\n    //     return (ids,names,pictureHashs,ages,breeds,locations,adopters);\r\n    // }\r\n\r\n    // Solidity Function has maxmum number of local variables of 16, string counts two.\r\n    function getPetInfo(uint256 petId) public view returns (uint256, string memory, string memory, uint256, string memory, string memory, address) {\r\n        require(petId >= 0 && petId < petsCount);\r\n        return (Pets[_testIterationNum][petId].id, \r\n                Pets[_testIterationNum][petId].name, \r\n                Pets[_testIterationNum][petId].pictureHash, \r\n                Pets[_testIterationNum][petId].age, \r\n                Pets[_testIterationNum][petId].breed, \r\n                Pets[_testIterationNum][petId].location, \r\n                Pets[_testIterationNum][petId].adopter);\r\n    }\r\n\r\n    function getPetType(uint256 petId) public view returns (uint256, bool) {\r\n        require(petId >= 0 && petId < petsCount);\r\n        return (Pets[_testIterationNum][petId].id, Pets[_testIterationNum][petId].forFree);\r\n    }\r\n\r\n    function getPetPrice(uint256 petId) public view returns (uint256, uint256, uint256, address) {\r\n        require(petId >= 0 && petId < petsCount);\r\n        return (Pets[_testIterationNum][petId].id, \r\n                Pets[_testIterationNum][petId].currentPrice, \r\n                Pets[_testIterationNum][petId].minIncrement,\r\n                Pets[_testIterationNum][petId].adopter);\r\n    }\r\n    // function getPetInfo(uint256 petId) public view returns (Pet memory) {\r\n    //     require(petId >= 0 && petId < petsCount);\r\n    //     return Pets[_testIterationNum][petId];\r\n    // }\r\n\r\n    // Retrieving the adopters\r\n    // function getAdopters() public view returns (address[16] memory) {\r\n    //     return adopters;\r\n    // }\r\n\r\n    function() external payable {}\r\n}\r\n",
  "sourcePath": "C:/Users/jeffl/Documents/GitHub/aps1050/contracts/Adoption.sol",
  "compiler": {
    "name": "solc",
    "version": "0.5.16+commit.9c3226ce.Emscripten.clang"
  },
  "schemaVersion": "3.0.22",
  "updatedAt": "2021-08-26T04:44:40.700Z",
  "networkType": "ethereum",
  "devdoc": {
    "methods": {}
  },
  "userdoc": {
    "methods": {}
  }
}