{
  "contractName": "Adoption",
  "abi": [
    {
      "inputs": [],
      "payable": false,
      "stateMutability": "nonpayable",
      "type": "constructor"
    },
    {
      "anonymous": false,
      "inputs": [
        {
          "indexed": false,
          "internalType": "uint256",
          "name": "_petId",
          "type": "uint256"
        },
        {
          "indexed": false,
          "internalType": "uint256",
          "name": "_biddingPrice",
          "type": "uint256"
        },
        {
          "indexed": false,
          "internalType": "address",
          "name": "_bidderAddres",
          "type": "address"
        },
        {
          "indexed": false,
          "internalType": "bool",
          "name": "_isSuccess",
          "type": "bool"
        }
      ],
      "name": "Bidding",
      "type": "event"
    },
    {
      "anonymous": false,
      "inputs": [
        {
          "indexed": false,
          "internalType": "uint256",
          "name": "_count",
          "type": "uint256"
        }
      ],
      "name": "GetPetCount",
      "type": "event"
    },
    {
      "payable": true,
      "stateMutability": "payable",
      "type": "fallback"
    },
    {
      "constant": true,
      "inputs": [
        {
          "internalType": "uint256",
          "name": "",
          "type": "uint256"
        },
        {
          "internalType": "uint256",
          "name": "",
          "type": "uint256"
        }
      ],
      "name": "Pets",
      "outputs": [
        {
          "internalType": "uint256",
          "name": "id",
          "type": "uint256"
        },
        {
          "internalType": "string",
          "name": "name",
          "type": "string"
        },
        {
          "internalType": "string",
          "name": "pictureHash",
          "type": "string"
        },
        {
          "internalType": "uint256",
          "name": "age",
          "type": "uint256"
        },
        {
          "internalType": "string",
          "name": "breed",
          "type": "string"
        },
        {
          "internalType": "string",
          "name": "location",
          "type": "string"
        },
        {
          "internalType": "address",
          "name": "adopter",
          "type": "address"
        },
        {
          "internalType": "bool",
          "name": "forFree",
          "type": "bool"
        },
        {
          "internalType": "uint256",
          "name": "currentPrice",
          "type": "uint256"
        },
        {
          "internalType": "uint256",
          "name": "minIncrement",
          "type": "uint256"
        }
      ],
      "payable": false,
      "stateMutability": "view",
      "type": "function"
    },
    {
      "constant": true,
      "inputs": [
        {
          "internalType": "uint256",
          "name": "",
          "type": "uint256"
        },
        {
          "internalType": "uint256",
          "name": "",
          "type": "uint256"
        }
      ],
      "name": "likes",
      "outputs": [
        {
          "internalType": "address",
          "name": "",
          "type": "address"
        }
      ],
      "payable": false,
      "stateMutability": "view",
      "type": "function"
    },
    {
      "constant": true,
      "inputs": [],
      "name": "petsCount",
      "outputs": [
        {
          "internalType": "uint256",
          "name": "",
          "type": "uint256"
        }
      ],
      "payable": false,
      "stateMutability": "view",
      "type": "function"
    },
    {
      "constant": false,
      "inputs": [
        {
          "internalType": "uint256",
          "name": "petId",
          "type": "uint256"
        }
      ],
      "name": "setAdopter",
      "outputs": [
        {
          "internalType": "uint256",
          "name": "",
          "type": "uint256"
        }
      ],
      "payable": false,
      "stateMutability": "nonpayable",
      "type": "function"
    },
    {
      "constant": false,
      "inputs": [
        {
          "internalType": "uint256",
          "name": "petId",
          "type": "uint256"
        },
        {
          "internalType": "uint256",
          "name": "bidPrice",
          "type": "uint256"
        }
      ],
      "name": "processBid",
      "outputs": [
        {
          "internalType": "bool",
          "name": "",
          "type": "bool"
        }
      ],
      "payable": false,
      "stateMutability": "nonpayable",
      "type": "function"
    },
    {
      "constant": false,
      "inputs": [
        {
          "internalType": "string",
          "name": "name",
          "type": "string"
        },
        {
          "internalType": "string",
          "name": "picHash",
          "type": "string"
        },
        {
          "internalType": "uint256",
          "name": "age",
          "type": "uint256"
        },
        {
          "internalType": "string",
          "name": "breed",
          "type": "string"
        },
        {
          "internalType": "string",
          "name": "location",
          "type": "string"
        },
        {
          "internalType": "bool",
          "name": "forFree",
          "type": "bool"
        },
        {
          "internalType": "uint256",
          "name": "startPrice",
          "type": "uint256"
        },
        {
          "internalType": "uint256",
          "name": "minIncrement",
          "type": "uint256"
        }
      ],
      "name": "addNewPet",
      "outputs": [
        {
          "internalType": "uint256",
          "name": "",
          "type": "uint256"
        }
      ],
      "payable": false,
      "stateMutability": "nonpayable",
      "type": "function"
    },
    {
      "constant": false,
      "inputs": [],
      "name": "deleteAllPets",
      "outputs": [
        {
          "internalType": "bool",
          "name": "",
          "type": "bool"
        }
      ],
      "payable": false,
      "stateMutability": "nonpayable",
      "type": "function"
    },
    {
      "constant": true,
      "inputs": [
        {
          "internalType": "uint256",
          "name": "petId",
          "type": "uint256"
        }
      ],
      "name": "getPetInfo",
      "outputs": [
        {
          "internalType": "uint256",
          "name": "",
          "type": "uint256"
        },
        {
          "internalType": "string",
          "name": "",
          "type": "string"
        },
        {
          "internalType": "string",
          "name": "",
          "type": "string"
        },
        {
          "internalType": "uint256",
          "name": "",
          "type": "uint256"
        },
        {
          "internalType": "string",
          "name": "",
          "type": "string"
        },
        {
          "internalType": "string",
          "name": "",
          "type": "string"
        },
        {
          "internalType": "address",
          "name": "",
          "type": "address"
        }
      ],
      "payable": false,
      "stateMutability": "view",
      "type": "function"
    },
    {
      "constant": true,
      "inputs": [
        {
          "internalType": "uint256",
          "name": "petId",
          "type": "uint256"
        }
      ],
      "name": "getPetType",
      "outputs": [
        {
          "internalType": "uint256",
          "name": "",
          "type": "uint256"
        },
        {
          "internalType": "bool",
          "name": "",
          "type": "bool"
        }
      ],
      "payable": false,
      "stateMutability": "view",
      "type": "function"
    },
    {
      "constant": true,
      "inputs": [
        {
          "internalType": "uint256",
          "name": "petId",
          "type": "uint256"
        }
      ],
      "name": "getPetPrice",
      "outputs": [
        {
          "internalType": "uint256",
          "name": "",
          "type": "uint256"
        },
        {
          "internalType": "uint256",
          "name": "",
          "type": "uint256"
        },
        {
          "internalType": "uint256",
          "name": "",
          "type": "uint256"
        },
        {
          "internalType": "address",
          "name": "",
          "type": "address"
        }
      ],
      "payable": false,
      "stateMutability": "view",
      "type": "function"
    },
    {
      "constant": false,
      "inputs": [
        {
          "internalType": "uint256",
          "name": "petId",
          "type": "uint256"
        }
      ],
      "name": "setLike",
      "outputs": [
        {
          "internalType": "uint256",
          "name": "",
          "type": "uint256"
        }
      ],
      "payable": false,
      "stateMutability": "nonpayable",
      "type": "function"
    },
    {
      "constant": true,
      "inputs": [
        {
          "internalType": "uint256",
          "name": "petId",
          "type": "uint256"
        }
      ],
      "name": "getLike",
      "outputs": [
        {
          "internalType": "bool",
          "name": "",
          "type": "bool"
        }
      ],
      "payable": false,
      "stateMutability": "view",
      "type": "function"
    }
  ],
  "bytecode": "0x608060405261028a600055600060035534801561001b57600080fd5b506000600281905550611a34806100336000396000f3fe6080604052600436106100a75760003560e01c80637d5b9219116100645780637d5b92191461020b57806392939f931461024b578063d40c600e14610288578063e9d5da07146102c5578063f443cc1314610303578063fd8c175d14610349576100a7565b8063263457f2146100a95780632d742717146100e657806331a55e6c1461012357806361f7b0591461016057806369c3f3161461019d57806379709e72146101e0575b005b3480156100b557600080fd5b506100d060048036036100cb9190810190611541565b610374565b6040516100dd919061162b565b60405180910390f35b3480156100f257600080fd5b5061010d60048036036101089190810190611518565b6103bf565b60405161011a9190611646565b60405180910390f35b34801561012f57600080fd5b5061014a60048036036101459190810190611518565b6104a4565b6040516101579190611661565b60405180910390f35b34801561016c57600080fd5b5061018760048036036101829190810190611518565b61057c565b6040516101949190611661565b60405180910390f35b3480156101a957600080fd5b506101c460048036036101bf9190810190611518565b610617565b6040516101d797969594939291906116a5565b60405180910390f35b3480156101ec57600080fd5b506101f5610a08565b6040516102029190611646565b60405180910390f35b34801561021757600080fd5b50610232600480360361022d9190810190611518565b610a2b565b604051610242949392919061182d565b60405180910390f35b34801561025757600080fd5b50610272600480360361026d9190810190611406565b610b23565b60405161027f9190611661565b60405180910390f35b34801561029457600080fd5b506102af60048036036102aa9190810190611541565b610d2d565b6040516102bc9190611646565b60405180910390f35b3480156102d157600080fd5b506102ec60048036036102e79190810190611518565b610f67565b6040516102fa92919061167c565b60405180910390f35b34801561030f57600080fd5b5061032a60048036036103259190810190611541565b610fef565b6040516103409a99989796959493929190611730565b60405180910390f35b34801561035557600080fd5b5061035e6112dd565b60405161036b9190611661565b60405180910390f35b6004602052816000526040600020818154811061038d57fe5b906000526020600020016000915091509054906101000a900473ffffffffffffffffffffffffffffffffffffffff1681565b60008082101580156103d2575060025482105b6103db57600080fd5b60006004600084815260200190815260200160002080549050905060008090505b81811015610498573373ffffffffffffffffffffffffffffffffffffffff1660046000868152602001908152602001600020828154811061043957fe5b9060005260206000200160009054906101000a900473ffffffffffffffffffffffffffffffffffffffff1673ffffffffffffffffffffffffffffffffffffffff16141561048b5760019250505061049f565b80806001019150506103fc565b5060009150505b919050565b60008082101580156104b7575060025482105b80156104fd575060011515600160006003548152602001908152602001600020600084815260200190815260200160002060060160149054906101000a900460ff161515145b61050657600080fd5b600060016000600354815260200190815260200160002060008481526020019081526020016000209050338160060160006101000a81548173ffffffffffffffffffffffffffffffffffffffff021916908373ffffffffffffffffffffffffffffffffffffffff16021790555082915050919050565b600080821015801561058f575060025482105b61059857600080fd5b600460008381526020019081526020016000203390806001815401808255809150509060018203906000526020600020016000909192909190916101000a81548173ffffffffffffffffffffffffffffffffffffffff021916908373ffffffffffffffffffffffffffffffffffffffff16021790555050819050919050565b600060608060006060806000808810158015610634575060025488105b61063d57600080fd5b60016000600354815260200190815260200160002060008981526020019081526020016000206000015460016000600354815260200190815260200160002060008a815260200190815260200160002060010160016000600354815260200190815260200160002060008b815260200190815260200160002060020160016000600354815260200190815260200160002060008c81526020019081526020016000206003015460016000600354815260200190815260200160002060008d815260200190815260200160002060040160016000600354815260200190815260200160002060008e815260200190815260200160002060050160016000600354815260200190815260200160002060008f815260200190815260200160002060060160009054906101000a900473ffffffffffffffffffffffffffffffffffffffff16858054600181600116156101000203166002900480601f0160208091040260200160405190810160405280929190818152602001828054600181600116156101000203166002900480156108145780601f106107e957610100808354040283529160200191610814565b820191906000526020600020905b8154815290600101906020018083116107f757829003601f168201915b50505050509550848054600181600116156101000203166002900480601f0160208091040260200160405190810160405280929190818152602001828054600181600116156101000203166002900480156108b05780601f10610885576101008083540402835291602001916108b0565b820191906000526020600020905b81548152906001019060200180831161089357829003601f168201915b50505050509450828054600181600116156101000203166002900480601f01602080910402602001604051908101604052809291908181526020018280546001816001161561010002031660029004801561094c5780601f106109215761010080835404028352916020019161094c565b820191906000526020600020905b81548152906001019060200180831161092f57829003601f168201915b50505050509250818054600181600116156101000203166002900480601f0160208091040260200160405190810160405280929190818152602001828054600181600116156101000203166002900480156109e85780601f106109bd576101008083540402835291602001916109e8565b820191906000526020600020905b8154815290600101906020018083116109cb57829003601f168201915b505050505091509650965096509650965096509650919395979092949650565b600060036000815480929190600101919050555060006002819055506001905090565b60008060008060008510158015610a43575060025485105b610a4c57600080fd5b600160006003548152602001908152602001600020600086815260200190815260200160002060000154600160006003548152602001908152602001600020600087815260200190815260200160002060070154600160006003548152602001908152602001600020600088815260200190815260200160002060080154600160006003548152602001908152602001600020600089815260200190815260200160002060060160009054906101000a900473ffffffffffffffffffffffffffffffffffffffff1693509350935093509193509193565b600080831015610b3257600192505b6000821015610b4057600191505b60405180610140016040528060025481526020018a8152602001898152602001888152602001878152602001868152602001600073ffffffffffffffffffffffffffffffffffffffff16815260200185151581526020018481526020018381525060016000600354815260200190815260200160002060006002548152602001908152602001600020600082015181600001556020820151816001019080519060200190610bef9291906112e3565b506040820151816002019080519060200190610c0c9291906112e3565b50606082015181600301556080820151816004019080519060200190610c339291906112e3565b5060a0820151816005019080519060200190610c509291906112e3565b5060c08201518160060160006101000a81548173ffffffffffffffffffffffffffffffffffffffff021916908373ffffffffffffffffffffffffffffffffffffffff16021790555060e08201518160060160146101000a81548160ff021916908315150217905550610100820151816007015561012082015181600801559050506002600081548092919060010191905055507fdf66059526a19b7a744fc08e4e91190cff903ebda1c1796644cd68db6adba215600254604051610d149190611661565b60405180910390a1600254905098975050505050505050565b6000808310158015610d40575060025483105b8015610d86575060001515600160006003548152602001908152602001600020600085815260200190815260200160002060060160149054906101000a900460ff161515145b610d8f57600080fd5b60006001600060035481526020019081526020016000206000858152602001908152602001600020600801546001600060035481526020019081526020016000206000868152602001908152602001600020600701540190506000600160006003548152602001908152602001600020600086815260200190815260200160002060060160009054906101000a900473ffffffffffffffffffffffffffffffffffffffff169050818410610f1c578360016000600354815260200190815260200160002060008781526020019081526020016000206007018190555033600160006003548152602001908152602001600020600087815260200190815260200160002060060160006101000a81548173ffffffffffffffffffffffffffffffffffffffff021916908373ffffffffffffffffffffffffffffffffffffffff1602179055507fec278d1e15762fe757fb346ddda592e39cf6fa7377d073d4b43d34745bb1635a8585336001604051610f0994939291906117e8565b60405180910390a1600192505050610f61565b7fec278d1e15762fe757fb346ddda592e39cf6fa7377d073d4b43d34745bb1635a8585336000604051610f5294939291906117e8565b60405180910390a16000925050505b92915050565b60008060008310158015610f7c575060025483105b610f8557600080fd5b600160006003548152602001908152602001600020600084815260200190815260200160002060000154600160006003548152602001908152602001600020600085815260200190815260200160002060060160149054906101000a900460ff1691509150915091565b600160205281600052604060002060205280600052604060002060009150915050806000015490806001018054600181600116156101000203166002900480601f0160208091040260200160405190810160405280929190818152602001828054600181600116156101000203166002900480156110ae5780601f10611083576101008083540402835291602001916110ae565b820191906000526020600020905b81548152906001019060200180831161109157829003601f168201915b505050505090806002018054600181600116156101000203166002900480601f01602080910402602001604051908101604052809291908181526020018280546001816001161561010002031660029004801561114c5780601f106111215761010080835404028352916020019161114c565b820191906000526020600020905b81548152906001019060200180831161112f57829003601f168201915b505050505090806003015490806004018054600181600116156101000203166002900480601f0160208091040260200160405190810160405280929190818152602001828054600181600116156101000203166002900480156111f05780601f106111c5576101008083540402835291602001916111f0565b820191906000526020600020905b8154815290600101906020018083116111d357829003601f168201915b505050505090806005018054600181600116156101000203166002900480601f01602080910402602001604051908101604052809291908181526020018280546001816001161561010002031660029004801561128e5780601f106112635761010080835404028352916020019161128e565b820191906000526020600020905b81548152906001019060200180831161127157829003601f168201915b5050505050908060060160009054906101000a900473ffffffffffffffffffffffffffffffffffffffff16908060060160149054906101000a900460ff1690806007015490806008015490508a565b60025481565b828054600181600116156101000203166002900490600052602060002090601f016020900481019282601f1061132457805160ff1916838001178555611352565b82800160010185558215611352579182015b82811115611351578251825591602001919060010190611336565b5b50905061135f9190611363565b5090565b61138591905b80821115611381576000816000905550600101611369565b5090565b90565b600081359050611397816119c3565b92915050565b600082601f8301126113ae57600080fd5b81356113c16113bc8261189f565b611872565b915080825260208301602083018583830111156113dd57600080fd5b6113e8838284611970565b50505092915050565b600081359050611400816119da565b92915050565b600080600080600080600080610100898b03121561142357600080fd5b600089013567ffffffffffffffff81111561143d57600080fd5b6114498b828c0161139d565b985050602089013567ffffffffffffffff81111561146657600080fd5b6114728b828c0161139d565b97505060406114838b828c016113f1565b965050606089013567ffffffffffffffff8111156114a057600080fd5b6114ac8b828c0161139d565b955050608089013567ffffffffffffffff8111156114c957600080fd5b6114d58b828c0161139d565b94505060a06114e68b828c01611388565b93505060c06114f78b828c016113f1565b92505060e06115088b828c016113f1565b9150509295985092959890939650565b60006020828403121561152a57600080fd5b6000611538848285016113f1565b91505092915050565b6000806040838503121561155457600080fd5b6000611562858286016113f1565b9250506020611573858286016113f1565b9150509250929050565b6115868161193a565b82525050565b611595816118f2565b82525050565b6115a481611904565b82525050565b60006115b5826118d6565b6115bf81856118e1565b93506115cf81856020860161197f565b6115d8816119b2565b840191505092915050565b60006115ee826118cb565b6115f881856118e1565b935061160881856020860161197f565b611611816119b2565b840191505092915050565b61162581611930565b82525050565b6000602082019050611640600083018461158c565b92915050565b600060208201905061165b600083018461159b565b92915050565b6000602082019050611676600083018461161c565b92915050565b6000604082019050611691600083018561161c565b61169e602083018461159b565b9392505050565b600060e0820190506116ba600083018a61161c565b81810360208301526116cc81896115aa565b905081810360408301526116e081886115aa565b90506116ef606083018761161c565b818103608083015261170181866115aa565b905081810360a083015261171581856115aa565b905061172460c083018461158c565b98975050505050505050565b600061014082019050611746600083018d61161c565b8181036020830152611758818c6115e3565b9050818103604083015261176c818b6115e3565b905061177b606083018a61161c565b818103608083015261178d81896115e3565b905081810360a08301526117a181886115e3565b90506117b060c083018761158c565b6117bd60e083018661159b565b6117cb61010083018561161c565b6117d961012083018461161c565b9b9a5050505050505050505050565b60006080820190506117fd600083018761161c565b61180a602083018661161c565b611817604083018561157d565b611824606083018461159b565b95945050505050565b6000608082019050611842600083018761161c565b61184f602083018661161c565b61185c604083018561161c565b611869606083018461158c565b95945050505050565b6000604051905081810181811067ffffffffffffffff8211171561189557600080fd5b8060405250919050565b600067ffffffffffffffff8211156118b657600080fd5b601f19601f8301169050602081019050919050565b600081519050919050565b600081519050919050565b600082825260208201905092915050565b60006118fd82611910565b9050919050565b60008115159050919050565b600073ffffffffffffffffffffffffffffffffffffffff82169050919050565b6000819050919050565b60006119458261194c565b9050919050565b60006119578261195e565b9050919050565b600061196982611910565b9050919050565b82818337600083830152505050565b60005b8381101561199d578082015181840152602081019050611982565b838111156119ac576000848401525b50505050565b6000601f19601f8301169050919050565b6119cc81611904565b81146119d757600080fd5b50565b6119e381611930565b81146119ee57600080fd5b5056fea365627a7a723158203f3dcc61a46ceb6a423fc00823507cafca039264823a5aabb3c40b81c12b1a896c6578706572696d656e74616cf564736f6c63430005100040",
  "source": "pragma solidity ^0.5.0;\r\npragma experimental ABIEncoderV2;\r\ncontract Adoption {\r\n    uint VersionMarker3 = 650;\r\n    event GetPetCount(uint256 _count);\r\n    event Bidding(uint256 _petId, uint256 _biddingPrice, address _bidderAddres, bool _isSuccess);\r\n\r\n    struct Pet {\r\n        uint256 id;\r\n        string name;\r\n        string pictureHash;\r\n        uint256 age;\r\n        string breed;\r\n        string location;\r\n        address adopter; //also the winner of an auction\r\n\r\n        bool forFree; //true is for adotion, false is for auction\r\n        //parameters below are for aucitons only\r\n        uint256 currentPrice;\r\n        uint256 minIncrement;\r\n    }\r\n\r\n    mapping(uint256 => mapping(uint256 => Pet)) public Pets; //[# of generations][pet-id]\r\n\r\n    uint256 public petsCount;\r\n    uint256 private _testIterationNum = 0;\r\n    mapping(uint256 => address[]) public likes;\r\n\r\n    constructor() public {\r\n        petsCount = 0;\r\n    }\r\n\r\n    // Adopting a pet\r\n    function setAdopter(uint256 petId) public returns (uint256) {\r\n        require(petId >= 0 && petId < petsCount && Pets[_testIterationNum][petId].forFree == true); \r\n        //we might need to add Pets[_testIterationNum][petId].adopter == address(0)\r\n        //and Pets[_testIterationNum][petId].forFree == true\r\n\r\n        Pet storage pet = Pets[_testIterationNum][petId];\r\n        pet.adopter = msg.sender;\r\n\r\n        // Pets[_testIterationNum][petId].adopter = msg.sender;\r\n\r\n        return petId;\r\n    }\r\n\r\n    // Bid on a pet\r\n    function processBid(uint256 petId, uint256 bidPrice) public returns (bool) {\r\n        require(petId >= 0 && petId < petsCount && Pets[_testIterationNum][petId].forFree == false);\r\n\r\n        uint256 minimumPrice = Pets[_testIterationNum][petId].currentPrice + Pets[_testIterationNum][petId].minIncrement;\r\n        address currentAdopter = Pets[_testIterationNum][petId].adopter;\r\n\r\n\r\n        if (bidPrice >= minimumPrice) { //(bidPrice >= minimumPrice && msg.sender != currentAdopter)\r\n            Pets[_testIterationNum][petId].currentPrice = bidPrice;\r\n            Pets[_testIterationNum][petId].adopter = msg.sender;\r\n            emit Bidding(petId, bidPrice, msg.sender, true);\r\n            return true;\r\n        }\r\n        else {\r\n            emit Bidding(petId, bidPrice, msg.sender, false);\r\n            return false;\r\n        }\r\n    }\r\n\r\n    // Adding new pet\r\n    function addNewPet(\r\n        string memory name,\r\n        string memory picHash,\r\n        uint256 age,\r\n        string memory breed,\r\n        string memory location,\r\n\r\n        bool forFree,\r\n        uint256 startPrice,\r\n        uint256 minIncrement \r\n    ) public returns (uint256) {\r\n        // to make sure the followings are positive \r\n        if (startPrice<0) {\r\n            startPrice = 1;\r\n        }\r\n        if (minIncrement<0) {\r\n            minIncrement = 1;\r\n        }\r\n\r\n        Pets[_testIterationNum][petsCount] = Pet(\r\n            petsCount,\r\n            name,\r\n            picHash,\r\n            age,\r\n            breed,\r\n            location,\r\n            address(0),\r\n\r\n            forFree,\r\n            startPrice,\r\n            minIncrement\r\n        );\r\n        petsCount++;\r\n        emit GetPetCount(petsCount);\r\n        return petsCount;\r\n    }\r\n\r\n    function deleteAllPets() public returns (bool) {\r\n        _testIterationNum++;\r\n        petsCount = 0;\r\n        return true;\r\n    }\r\n\r\n    // function getPetsInfo() external view returns (uint256[] memory, string[] memory, string[] memory, uint256[] memory, string[] memory, string[] memory, address[] memory) {\r\n\r\n    //     uint256[] memory ids =  new uint256[](petsCount);\r\n    //     string[] memory names = new string[](petsCount);\r\n    //     string[] memory pictureHashs = new string[](petsCount);\r\n    //     uint256[] memory ages =  new uint256[](petsCount);\r\n    //     string[] memory breeds = new string[](petsCount);\r\n    //     string[] memory locations = new string[](petsCount);\r\n    //     address[] memory adopters = new address[](petsCount);\r\n    //     for (uint256 i = 0; i < petsCount; i++) {\r\n    //         ids[i] = (Pets[_testIterationNum][i].id);\r\n    //         names[i] = Pets[_testIterationNum][i].name;\r\n    //         pictureHashs[i] = (Pets[_testIterationNum][i].pictureHash);\r\n    //         breeds[i] = (Pets[_testIterationNum][i].breed);\r\n    //         locations[i] = (Pets[_testIterationNum][i].location);   \r\n    //         adopters[i] = (Pets[_testIterationNum][i].adopter);\r\n    //         ages[i] = (Pets[_testIterationNum][i].age);\r\n    //     }\r\n    //     return (ids,names,pictureHashs,ages,breeds,locations,adopters);\r\n    // }\r\n\r\n    // Solidity Function has maxmum number of local variables of 16, string counts two.\r\n    function getPetInfo(uint256 petId) public view returns (uint256, string memory, string memory, uint256, string memory, string memory, address) {\r\n        require(petId >= 0 && petId < petsCount);\r\n        return (Pets[_testIterationNum][petId].id, \r\n                Pets[_testIterationNum][petId].name, \r\n                Pets[_testIterationNum][petId].pictureHash, \r\n                Pets[_testIterationNum][petId].age, \r\n                Pets[_testIterationNum][petId].breed, \r\n                Pets[_testIterationNum][petId].location, \r\n                Pets[_testIterationNum][petId].adopter);\r\n    }\r\n\r\n    function getPetType(uint256 petId) public view returns (uint256, bool) {\r\n        require(petId >= 0 && petId < petsCount);\r\n        return (Pets[_testIterationNum][petId].id, Pets[_testIterationNum][petId].forFree);\r\n    }\r\n\r\n    function getPetPrice(uint256 petId) public view returns (uint256, uint256, uint256, address) {\r\n        require(petId >= 0 && petId < petsCount);\r\n        return (Pets[_testIterationNum][petId].id, \r\n                Pets[_testIterationNum][petId].currentPrice, \r\n                Pets[_testIterationNum][petId].minIncrement,\r\n                Pets[_testIterationNum][petId].adopter);\r\n    }\r\n    // function getPetInfo(uint256 petId) public view returns (Pet memory) {\r\n    //     require(petId >= 0 && petId < petsCount);\r\n    //     return Pets[_testIterationNum][petId];\r\n    // }\r\n\r\n    // Retrieving the adopters\r\n    // function getAdopters() public view returns (address[16] memory) {\r\n    //     return adopters;\r\n    // }\r\n\r\n    function() external payable {}\r\n\r\n    function setLike(uint256 petId) public returns(uint256){\r\n        require(petId >= 0 && petId < petsCount);\r\n        likes[petId].push(msg.sender);\r\n        return petId;\r\n    }\r\n\r\n    function getLike(uint256 petId) public view returns(bool){\r\n        require(petId >= 0 && petId < petsCount);\r\n        uint len = likes[petId].length;\r\n        for (uint i = 0; i < len; i++){\r\n            if (likes[petId][i] == msg.sender){\r\n                return true;\r\n            }\r\n        }\r\n        return false;\r\n\r\n    }\r\n}\r\n",
  "sourcePath": "C:/Users/jeffl/Documents/GitHub/aps1050/contracts/Adoption.sol",
  "compiler": {
    "name": "solc",
    "version": "0.5.16+commit.9c3226ce.Emscripten.clang"
  },
  "schemaVersion": "3.0.22",
  "updatedAt": "2021-08-27T21:23:19.088Z",
  "networkType": "ethereum",
  "devdoc": {
    "methods": {}
  },
  "userdoc": {
    "methods": {}
  }
}