{
  "contractName": "Adoption",
  "abi": [
    {
      "inputs": [],
      "payable": false,
      "stateMutability": "nonpayable",
      "type": "constructor"
    },
    {
      "anonymous": false,
      "inputs": [
        {
          "indexed": false,
          "internalType": "uint256",
          "name": "_count",
          "type": "uint256"
        }
      ],
      "name": "GetPetCount",
      "type": "event"
    },
    {
      "payable": true,
      "stateMutability": "payable",
      "type": "fallback"
    },
    {
      "constant": true,
      "inputs": [
        {
          "internalType": "uint256",
          "name": "",
          "type": "uint256"
        },
        {
          "internalType": "uint256",
          "name": "",
          "type": "uint256"
        }
      ],
      "name": "Pets",
      "outputs": [
        {
          "internalType": "uint256",
          "name": "id",
          "type": "uint256"
        },
        {
          "internalType": "string",
          "name": "name",
          "type": "string"
        },
        {
          "internalType": "string",
          "name": "pictureHash",
          "type": "string"
        },
        {
          "internalType": "uint256",
          "name": "age",
          "type": "uint256"
        },
        {
          "internalType": "string",
          "name": "breed",
          "type": "string"
        },
        {
          "internalType": "string",
          "name": "location",
          "type": "string"
        },
        {
          "internalType": "address",
          "name": "adopter",
          "type": "address"
        }
      ],
      "payable": false,
      "stateMutability": "view",
      "type": "function"
    },
    {
      "constant": true,
      "inputs": [
        {
          "internalType": "uint256",
          "name": "",
          "type": "uint256"
        },
        {
          "internalType": "uint256",
          "name": "",
          "type": "uint256"
        }
      ],
      "name": "likes",
      "outputs": [
        {
          "internalType": "address",
          "name": "",
          "type": "address"
        }
      ],
      "payable": false,
      "stateMutability": "view",
      "type": "function"
    },
    {
      "constant": true,
      "inputs": [],
      "name": "petsCount",
      "outputs": [
        {
          "internalType": "uint256",
          "name": "",
          "type": "uint256"
        }
      ],
      "payable": false,
      "stateMutability": "view",
      "type": "function"
    },
    {
      "constant": false,
      "inputs": [
        {
          "internalType": "uint256",
          "name": "petId",
          "type": "uint256"
        }
      ],
      "name": "setAdopter",
      "outputs": [
        {
          "internalType": "uint256",
          "name": "",
          "type": "uint256"
        }
      ],
      "payable": false,
      "stateMutability": "nonpayable",
      "type": "function"
    },
    {
      "constant": false,
      "inputs": [
        {
          "internalType": "string",
          "name": "name",
          "type": "string"
        },
        {
          "internalType": "string",
          "name": "picHash",
          "type": "string"
        },
        {
          "internalType": "uint256",
          "name": "age",
          "type": "uint256"
        },
        {
          "internalType": "string",
          "name": "breed",
          "type": "string"
        },
        {
          "internalType": "string",
          "name": "location",
          "type": "string"
        }
      ],
      "name": "addNewPet",
      "outputs": [
        {
          "internalType": "uint256",
          "name": "",
          "type": "uint256"
        }
      ],
      "payable": false,
      "stateMutability": "nonpayable",
      "type": "function"
    },
    {
      "constant": false,
      "inputs": [],
      "name": "deleteAllPets",
      "outputs": [
        {
          "internalType": "bool",
          "name": "",
          "type": "bool"
        }
      ],
      "payable": false,
      "stateMutability": "nonpayable",
      "type": "function"
    },
    {
      "constant": true,
      "inputs": [
        {
          "internalType": "uint256",
          "name": "petId",
          "type": "uint256"
        }
      ],
      "name": "getPetInfo",
      "outputs": [
        {
          "internalType": "uint256",
          "name": "",
          "type": "uint256"
        },
        {
          "internalType": "string",
          "name": "",
          "type": "string"
        },
        {
          "internalType": "string",
          "name": "",
          "type": "string"
        },
        {
          "internalType": "uint256",
          "name": "",
          "type": "uint256"
        },
        {
          "internalType": "string",
          "name": "",
          "type": "string"
        },
        {
          "internalType": "string",
          "name": "",
          "type": "string"
        },
        {
          "internalType": "address",
          "name": "",
          "type": "address"
        }
      ],
      "payable": false,
      "stateMutability": "view",
      "type": "function"
    },
    {
      "constant": false,
      "inputs": [
        {
          "internalType": "uint256",
          "name": "petId",
          "type": "uint256"
        }
      ],
      "name": "setLike",
      "outputs": [
        {
          "internalType": "uint256",
          "name": "",
          "type": "uint256"
        }
      ],
      "payable": false,
      "stateMutability": "nonpayable",
      "type": "function"
    },
    {
      "constant": true,
      "inputs": [
        {
          "internalType": "uint256",
          "name": "petId",
          "type": "uint256"
        }
      ],
      "name": "getLike",
      "outputs": [
        {
          "internalType": "bool",
          "name": "",
          "type": "bool"
        }
      ],
      "payable": false,
      "stateMutability": "view",
      "type": "function"
    }
  ],
  "bytecode": "0x6080604052600060025534801561001557600080fd5b5060006001819055506113388061002d6000396000f3fe6080604052600436106100865760003560e01c806369c3f3161161005957806369c3f3161461017c57806379709e72146101bf578063a2ce8f15146101ea578063f443cc1314610227578063fd8c175d1461026a57610086565b8063263457f2146100885780632d742717146100c557806331a55e6c1461010257806361f7b0591461013f575b005b34801561009457600080fd5b506100af60048036036100aa9190810190610f81565b610295565b6040516100bc919061105c565b60405180910390f35b3480156100d157600080fd5b506100ec60048036036100e79190810190610f58565b6102e0565b6040516100f99190611077565b60405180910390f35b34801561010e57600080fd5b5061012960048036036101249190810190610f58565b6103c5565b6040516101369190611092565b60405180910390f35b34801561014b57600080fd5b5061016660048036036101619190810190610f58565b610456565b6040516101739190611092565b60405180910390f35b34801561018857600080fd5b506101a3600480360361019e9190810190610f58565b6104f1565b6040516101b697969594939291906110ad565b60405180910390f35b3480156101cb57600080fd5b506101d46108db565b6040516101e19190611077565b60405180910390f35b3480156101f657600080fd5b50610211600480360361020c9190810190610e81565b6108fe565b60405161021e9190611092565b60405180910390f35b34801561023357600080fd5b5061024e60048036036102499190810190610f81565b610a9e565b6040516102619796959493929190611138565b60405180910390f35b34801561027657600080fd5b5061027f610d6d565b60405161028c9190611092565b60405180910390f35b600360205281600052604060002081815481106102ae57fe5b906000526020600020016000915091509054906101000a900473ffffffffffffffffffffffffffffffffffffffff1681565b60008082101580156102f3575060015482105b6102fc57600080fd5b60006003600084815260200190815260200160002080549050905060008090505b818110156103b9573373ffffffffffffffffffffffffffffffffffffffff1660036000868152602001908152602001600020828154811061035a57fe5b9060005260206000200160009054906101000a900473ffffffffffffffffffffffffffffffffffffffff1673ffffffffffffffffffffffffffffffffffffffff1614156103ac576001925050506103c0565b808060010191505061031d565b5060009150505b919050565b60008082101580156103d8575060015482105b6103e157600080fd5b6000806000600254815260200190815260200160002060008481526020019081526020016000209050338160060160006101000a81548173ffffffffffffffffffffffffffffffffffffffff021916908373ffffffffffffffffffffffffffffffffffffffff16021790555082915050919050565b6000808210158015610469575060015482105b61047257600080fd5b600360008381526020019081526020016000203390806001815401808255809150509060018203906000526020600020016000909192909190916101000a81548173ffffffffffffffffffffffffffffffffffffffff021916908373ffffffffffffffffffffffffffffffffffffffff16021790555050819050919050565b60006060806000606080600080881015801561050e575060015488105b61051757600080fd5b6000806002548152602001908152602001600020600089815260200190815260200160002060000154600080600254815260200190815260200160002060008a8152602001908152602001600020600101600080600254815260200190815260200160002060008b8152602001908152602001600020600201600080600254815260200190815260200160002060008c815260200190815260200160002060030154600080600254815260200190815260200160002060008d8152602001908152602001600020600401600080600254815260200190815260200160002060008e8152602001908152602001600020600501600080600254815260200190815260200160002060008f815260200190815260200160002060060160009054906101000a900473ffffffffffffffffffffffffffffffffffffffff16858054600181600116156101000203166002900480601f0160208091040260200160405190810160405280929190818152602001828054600181600116156101000203166002900480156106e75780601f106106bc576101008083540402835291602001916106e7565b820191906000526020600020905b8154815290600101906020018083116106ca57829003601f168201915b50505050509550848054600181600116156101000203166002900480601f0160208091040260200160405190810160405280929190818152602001828054600181600116156101000203166002900480156107835780601f1061075857610100808354040283529160200191610783565b820191906000526020600020905b81548152906001019060200180831161076657829003601f168201915b50505050509450828054600181600116156101000203166002900480601f01602080910402602001604051908101604052809291908181526020018280546001816001161561010002031660029004801561081f5780601f106107f45761010080835404028352916020019161081f565b820191906000526020600020905b81548152906001019060200180831161080257829003601f168201915b50505050509250818054600181600116156101000203166002900480601f0160208091040260200160405190810160405280929190818152602001828054600181600116156101000203166002900480156108bb5780601f10610890576101008083540402835291602001916108bb565b820191906000526020600020905b81548152906001019060200180831161089e57829003601f168201915b505050505091509650965096509650965096509650919395979092949650565b600060026000815480929190600101919050555060006001819055506001905090565b60006040518060e001604052806001548152602001878152602001868152602001858152602001848152602001838152602001600073ffffffffffffffffffffffffffffffffffffffff16815250600080600254815260200190815260200160002060006001548152602001908152602001600020600082015181600001556020820151816001019080519060200190610999929190610d73565b5060408201518160020190805190602001906109b6929190610d73565b506060820151816003015560808201518160040190805190602001906109dd929190610d73565b5060a08201518160050190805190602001906109fa929190610d73565b5060c08201518160060160006101000a81548173ffffffffffffffffffffffffffffffffffffffff021916908373ffffffffffffffffffffffffffffffffffffffff1602179055509050506001600081548092919060010191905055507fdf66059526a19b7a744fc08e4e91190cff903ebda1c1796644cd68db6adba215600154604051610a889190611092565b60405180910390a1600154905095945050505050565b600060205281600052604060002060205280600052604060002060009150915050806000015490806001018054600181600116156101000203166002900480601f016020809104026020016040519081016040528092919081815260200182805460018160011615610100020316600290048015610b5d5780601f10610b3257610100808354040283529160200191610b5d565b820191906000526020600020905b815481529060010190602001808311610b4057829003601f168201915b505050505090806002018054600181600116156101000203166002900480601f016020809104026020016040519081016040528092919081815260200182805460018160011615610100020316600290048015610bfb5780601f10610bd057610100808354040283529160200191610bfb565b820191906000526020600020905b815481529060010190602001808311610bde57829003601f168201915b505050505090806003015490806004018054600181600116156101000203166002900480601f016020809104026020016040519081016040528092919081815260200182805460018160011615610100020316600290048015610c9f5780601f10610c7457610100808354040283529160200191610c9f565b820191906000526020600020905b815481529060010190602001808311610c8257829003601f168201915b505050505090806005018054600181600116156101000203166002900480601f016020809104026020016040519081016040528092919081815260200182805460018160011615610100020316600290048015610d3d5780601f10610d1257610100808354040283529160200191610d3d565b820191906000526020600020905b815481529060010190602001808311610d2057829003601f168201915b5050505050908060060160009054906101000a900473ffffffffffffffffffffffffffffffffffffffff16905087565b60015481565b828054600181600116156101000203166002900490600052602060002090601f016020900481019282601f10610db457805160ff1916838001178555610de2565b82800160010185558215610de2579182015b82811115610de1578251825591602001919060010190610dc6565b5b509050610def9190610df3565b5090565b610e1591905b80821115610e11576000816000905550600101610df9565b5090565b90565b600082601f830112610e2957600080fd5b8135610e3c610e37826111f0565b6111c3565b91508082526020830160208301858383011115610e5857600080fd5b610e6383828461128b565b50505092915050565b600081359050610e7b816112de565b92915050565b600080600080600060a08688031215610e9957600080fd5b600086013567ffffffffffffffff811115610eb357600080fd5b610ebf88828901610e18565b955050602086013567ffffffffffffffff811115610edc57600080fd5b610ee888828901610e18565b9450506040610ef988828901610e6c565b935050606086013567ffffffffffffffff811115610f1657600080fd5b610f2288828901610e18565b925050608086013567ffffffffffffffff811115610f3f57600080fd5b610f4b88828901610e18565b9150509295509295909350565b600060208284031215610f6a57600080fd5b6000610f7884828501610e6c565b91505092915050565b60008060408385031215610f9457600080fd5b6000610fa285828601610e6c565b9250506020610fb385828601610e6c565b9150509250929050565b610fc681611243565b82525050565b610fd581611255565b82525050565b6000610fe682611227565b610ff08185611232565b935061100081856020860161129a565b611009816112cd565b840191505092915050565b600061101f8261121c565b6110298185611232565b935061103981856020860161129a565b611042816112cd565b840191505092915050565b61105681611281565b82525050565b60006020820190506110716000830184610fbd565b92915050565b600060208201905061108c6000830184610fcc565b92915050565b60006020820190506110a7600083018461104d565b92915050565b600060e0820190506110c2600083018a61104d565b81810360208301526110d48189610fdb565b905081810360408301526110e88188610fdb565b90506110f7606083018761104d565b81810360808301526111098186610fdb565b905081810360a083015261111d8185610fdb565b905061112c60c0830184610fbd565b98975050505050505050565b600060e08201905061114d600083018a61104d565b818103602083015261115f8189611014565b905081810360408301526111738188611014565b9050611182606083018761104d565b81810360808301526111948186611014565b905081810360a08301526111a88185611014565b90506111b760c0830184610fbd565b98975050505050505050565b6000604051905081810181811067ffffffffffffffff821117156111e657600080fd5b8060405250919050565b600067ffffffffffffffff82111561120757600080fd5b601f19601f8301169050602081019050919050565b600081519050919050565b600081519050919050565b600082825260208201905092915050565b600061124e82611261565b9050919050565b60008115159050919050565b600073ffffffffffffffffffffffffffffffffffffffff82169050919050565b6000819050919050565b82818337600083830152505050565b60005b838110156112b857808201518184015260208101905061129d565b838111156112c7576000848401525b50505050565b6000601f19601f8301169050919050565b6112e781611281565b81146112f257600080fd5b5056fea365627a7a723158206cf5ab92bfcca82999b9909729362e486a4b61d9137367d746523eb91793ecf56c6578706572696d656e74616cf564736f6c63430005100040",
  "source": "pragma solidity ^0.5.0;\r\npragma experimental ABIEncoderV2;\r\ncontract Adoption {\r\n    event GetPetCount(uint256 _count);\r\n    struct Pet {\r\n        uint256 id;\r\n        string name;\r\n        string pictureHash;\r\n        uint256 age;\r\n        string breed;\r\n        string location;\r\n        address adopter;\r\n    }\r\n\r\n    mapping(uint256 => mapping(uint256 => Pet)) public Pets;\r\n    uint256 public petsCount;\r\n    uint256 private _testIterationNum = 0;\r\n    mapping(uint256 => address[]) public likes;\r\n\r\n    constructor() public {\r\n        petsCount = 0;\r\n    }\r\n\r\n    // Adopting a pet\r\n    function setAdopter(uint256 petId) public returns (uint256) {\r\n        require(petId >= 0 && petId < petsCount);\r\n\r\n        Pet storage pet = Pets[_testIterationNum][petId];\r\n        pet.adopter = msg.sender;\r\n\r\n        return petId;\r\n    }\r\n\r\n    function addNewPet(\r\n        string memory name,\r\n        string memory picHash,\r\n        uint256 age,\r\n        string memory breed,\r\n        string memory location\r\n    ) public returns (uint256) {\r\n        Pets[_testIterationNum][petsCount] = Pet(\r\n            petsCount,\r\n            name,\r\n            picHash,\r\n            age,\r\n            breed,\r\n            location,\r\n            0x0000000000000000000000000000000000000000\r\n        );\r\n        petsCount++;\r\n        emit GetPetCount(petsCount);\r\n        return petsCount;\r\n    }\r\n\r\n    function deleteAllPets() public returns (bool) {\r\n        _testIterationNum++;\r\n        petsCount = 0;\r\n        return true;\r\n    }\r\n\r\n    // function getPetsInfo() external view returns (uint256[] memory, string[] memory, string[] memory, uint256[] memory, string[] memory, string[] memory, address[] memory) {\r\n\r\n    //     uint256[] memory ids =  new uint256[](petsCount);\r\n    //     string[] memory names = new string[](petsCount);\r\n    //     string[] memory pictureHashs = new string[](petsCount);\r\n    //     uint256[] memory ages =  new uint256[](petsCount);\r\n    //     string[] memory breeds = new string[](petsCount);\r\n    //     string[] memory locations = new string[](petsCount);\r\n    //     address[] memory adopters = new address[](petsCount);\r\n    //     for (uint256 i = 0; i < petsCount; i++) {\r\n    //         ids[i] = (Pets[_testIterationNum][i].id);\r\n    //         names[i] = Pets[_testIterationNum][i].name;\r\n    //         pictureHashs[i] = (Pets[_testIterationNum][i].pictureHash);\r\n    //         breeds[i] = (Pets[_testIterationNum][i].breed);\r\n    //         locations[i] = (Pets[_testIterationNum][i].location);   \r\n    //         adopters[i] = (Pets[_testIterationNum][i].adopter);\r\n    //         ages[i] = (Pets[_testIterationNum][i].age);\r\n    //     }\r\n    //     return (ids,names,pictureHashs,ages,breeds,locations,adopters);\r\n    // }\r\n\r\n    function getPetInfo(uint256 petId) public view returns (uint256, string memory, string memory, uint256, string memory, string memory, address) {\r\n        require(petId >= 0 && petId < petsCount);\r\n        return (Pets[_testIterationNum][petId].id, Pets[_testIterationNum][petId].name, Pets[_testIterationNum][petId].pictureHash, Pets[_testIterationNum][petId].age, Pets[_testIterationNum][petId].breed, Pets[_testIterationNum][petId].location, Pets[_testIterationNum][petId].adopter);\r\n    }\r\n\r\n    // function getPetInfo(uint256 petId) public view returns (Pet memory) {\r\n    //     require(petId >= 0 && petId < petsCount);\r\n    //     return Pets[_testIterationNum][petId];\r\n    // }\r\n\r\n    // Retrieving the adopters\r\n    // function getAdopters() public view returns (address[16] memory) {\r\n    //     return adopters;\r\n    // }\r\n\r\n    function() external payable {}\r\n\r\n    function setLike(uint256 petId) public returns(uint256){\r\n        require(petId >= 0 && petId < petsCount);\r\n        likes[petId].push(msg.sender);\r\n        return petId;\r\n    }\r\n\r\n    function getLike(uint256 petId) public view returns(bool){\r\n        require(petId >= 0 && petId < petsCount);\r\n        uint len = likes[petId].length;\r\n        for (uint i = 0; i < len; i++){\r\n            if (likes[petId][i] == msg.sender){\r\n                return true;\r\n            }\r\n        }\r\n        return false;\r\n\r\n    }\r\n}\r\n",
  "sourcePath": "D:/aps1050/aps1050proj/aps1050proj/contracts/Adoption.sol",
  "compiler": {
    "name": "solc",
    "version": "0.5.16+commit.9c3226ce.Emscripten.clang"
  },
  "schemaVersion": "3.0.22",
  "updatedAt": "2021-08-26T22:54:00.184Z",
  "networkType": "ethereum",
  "devdoc": {
    "methods": {}
  },
  "userdoc": {
    "methods": {}
  }
}